:10000000759850758920758DFD758BFDD28EC22037
:0E001000D222C221C2B2C22312051812057DEF
:10001E0020980A3099FAC29912057D80F38599309D
:0E002E00C29812057612003880E6C0E0E53078
:10003C00B43F051203698028B43A051201368020BA
:10004C00B42B051200F38018B42D051201B38010E7
:10005C00B43D0512006F800874031201F1120212F4
:0F006C00D0E022C0E0C0F03098FDE59975F002B9
:0E007B00C298B4441D3098FDE599C29815F066
:0F008900B453553098FDE599C29815F0B443492A
:0F00980012024E8051B44C1F3098FDE599C2986A
:0E00A70015F0B452353098FDE599C29815F069
:1000B500B44729D2221201FE802FB4531F3098FD78
:1000C500E599C29815F0B44D133098FDE599C2989D
:0E00D50015F0B44C07C2221201FE800DE5F0BA
:1000E3001201F112021280031201FED0F0D0E022BD
:0E00F300C0E0C0F03098FDE599C29875F002AB
:0F010100B456253098FDE599C29815F0B445190C
:0F0110003098FDE599C29815F0B4520D1201FE1A
:0F011F003099FDC2991204028008E5F01201F137
:0F012E00120212D0F0D0E022E8C0E0E9C0E0EA0F
:0F013D00C0E03098FDC298859931E5313098FDCA
:0F014C00C29885993225323098FDC29885993333
:0F015B0025333098FDC298A89928B80102801664
:10016A00A931B90002800F7936AA313098FDC298B8
:10017A00A7992709DAF53098FDC298A999F404C31A
:10018A0099B400181201FEB8000D12045D3099FDF1
:0F019A00C29912023A80081204B9800312022699
:0E01A900D0E0FAD0E0F9D0E0F822C0E0C0F0DB
:1001B7003098FDE599C29875F002B444203098FD57
:1001C700E599C29815F0B445143098FDE599C298A1
:0F01D70015F0B44C081201FE1203D18008E5F0B8
:0F01E6001201F1120212D0F0D0E022B400012277
:0F01F5003098FDC298D5E0F8227599413099FDF8
:0E020400C29975994B3099FDC29975994E2299
:100212007599553099FDC29975994E3099FDC299DB
:0F02220075994B227599523099FDC2997599457E
:0F0231003099FDC2997599532275994E3099FDF8
:0E024000C2997599583099FDC299759954224A
:10024E0075994A3099FDC2997599463099FDC299B2
:0E025E0075995022E8C0E0E9C0E078367400DF
:10026C0075993A3099FDC29985319925313099FDAE
:0F027C00C29985329925323099FDC299853399FF
:0F028B0025333099FDC2997599003099FDC299BC
:10029A00A931B90002800B2686993099FDC29908C6
:1002AA00D9F5F404F5993099FDC2993098FDC298B0
:0F02BA00E599B452163098FDC298E599B44511F4
:0F02C9003098FDC298E599B4530C80933098FD9E
:0E02D800C2983098FDC2983098FDC298E59902
:1002E600B44E163098FDC298E599B458113098FD71
:0E02F600C298E599B4540C800E3098FDC29861
:100304003098FDC2985112D220D0E0A9E0D0E0F894
:1003140022C0E075993A3099FDC299740375990029
:100324003099FDC299D5E0F57599013099FDC299CE
:0F0334007599FF3099FDC2993098FDC298E599EF
:10034300B452163098FDC298E599B445113098FD22
:0E035300C298E599B4530C80BB3098FDC29857
:100361003098FDC298D0E0223098FDC0F075F002BF
:10037100E599C298B4501D3098FDE599C29815F0E1
:0F038100B449303098FDE599C29815F0B44E2478
:0F0390001203BD8025B4441C3098FDE599C29836
:0E039F0015F0B44D103098FDE599C29815F098
:1003AD00B4500451628006E5F031F15112D0F022C3
:1003BD007599503099FDC29975994F3099FDC29933
:0F03CD0075994E22C0E0E8C0E0E9C0E0120528B3
:0E03DC00C2B212058B12052F120584120539CC
:0F03EA0012056512058B1204C612058412051840
:0F03F900D0E0F9D0E0F8D0E022C0E0E8C0E0EAC0
:10040800C0E0120528C2B212058B12052F1205840E
:1004180012054A75320075330075310878367A0846
:0F042800A69008DAFB5162202018C37408253310
:10043700F53374003532F532202205B408DF800326
:10044700B410DA711512051812057DC220D0E0FA32
:0F045700D0E0F8D0E022C0E0E8C0E0E9C0E0EA81
:10046600C0E020231CD22375340075350012052800
:0E047600C2B212058412052F1205401205397C
:0F0484001204DFA9311204EA7836869012058B34
:1004930012058408D2B2C2B230B7FDD9EEC3E53338
:1004A3002531F53574003532F534D0E0FAD0E0F972
:1004B300D0E0F8D0E02212051812058BC2B2C22395
:0F04C300220022C0E0E8C0E0E9C0E0781379FF32
:1004D200D9FED8FAD0E0F9D0E0F8D0E0220000004E
:1004E2000000000000000022C0E0E9C0E0EAC0E035
:1004F200A934AA35E9B53206EAB53302800FD2B281
:10050200C2B2C3EA2401FA740039F980E7D0E0FAF2
:0F051200D0E0F9D0E022C2B5C2B4C2B353460C58
:0E052100434604120592225346FC1205922214
:10052F005346FD434601120592224346031205929C
:0E053F002253467F4346701205922253463FD8
:0E054D00434630120592224346F012059222D8
:10055B005346CF4346C01205922253468F434680E3
:0E056B001205922253460F120592225346F7B4
:0E0579001205922243460812059222434604C0
:10058700120592225346FB12059222C0E0E8C0E012
:10059700C2B5C2B3C2B4E54678081392B41205B126
:0F05A700D8F8D2B3D0E0F8D0E022D2B5C2B52256
