:10000000759850758920758DFD758BFDD28EC22037
:0E001000D222C221C2B2C2237546081205C90F
:10001E0020980A3099FAC29912062B80F3859930EE
:0E002E00C29812062412003880E6C0E0E530C9
:10003C00B43F051203C28028B43A05120131802066
:10004C00B42B051200F38018B42D051201AC8010EE
:10005C00B43D0512006F800874031201F812024AB5
:0F006C00D0E022C0E0C0F03098FDE59975F002B9
:0E007B00C298B4441D3098FDE599C29815F066
:0F008900B453553098FDE599C29815F0B443492A
:0F00980012028F8051B44C1F3098FDE599C29829
:0E00A70015F0B452353098FDE599C29815F069
:1000B500B44729D222120205802FB4531F3098FD70
:1000C500E599C29815F0B44D133098FDE599C2989D
:0E00D50015F0B44C07C222120205800DE5F0B2
:1000E3001201F812024A8003120205D0F0D0E02276
:0E00F300C0E0C0F03098FDE599C29875F002AB
:0F010100B456203098FDE599C29815F0B4451416
:0F0110003098FDE599C29815F0B4520812020517
:0F011F0012045D8008E5F01201F812024AD0F0D8
:0F012E00D0E022E8C0E0E9C0E0EAC0E03098FD90
:0F013D00C298859931E5313098FDC29885993285
:0F014C0025323098FDC29885993325333098FDC0
:0F015B00C298A89928B801028016A931B90002EC
:0F016A00800F7936AA313098FDC298A7992709DE
:10017900DAF53098FDC298A999F404C399B4001628
:0F018900120205B8000B1204BF120624120278EE
:10019800800812051B8003120261D0E0FAD0E0F952
:0F01A800D0E0F822C0E0C0F03098FDE599C29891
:0F01B70075F002B4442E3098FDE599C29815F00A
:0F01C600B445223098FDE599C29815F0B44C1657
:0F01D50012020512042C120526202105120233F6
:0F01E400800D12021C8008E5F01201F812024A89
:0E01F300D0F0D0E022B40001223098FDC29876
:0F020100D5E0F8227599413099FDC29975994B56
:0F0210003099FDC29975994E1203B92275995311
:10021F003099FDC2997599433099FDC299759953DB
:0F022F001203B9227599453099FDC299759952FC
:0F023E003099FDC2997599521203B922759955DD
:10024D003099FDC29975994E3099FDC29975994BAA
:0F025D001203B9227599523099FDC299759945CE
:0F026C003099FDC2997599531203B92275994EB5
:10027B003099FDC2997599583099FDC29975995469
:0F028B001203B92275994A3099FDC299759946A7
:10029A003099FDC2997599501203B922E8C0E0E974
:0F02AA00C0E01206247836740075993A3099FD39
:0F02B900C29985319925313099FDC299853299C5
:0F02C80025323099FDC29985339925333099FD40
:0F02D700C2997599003099FDC299A931B90002F9
:0F02E600800B2686993099FDC29908D9F5F4044A
:0E02F500F5993099FDC2993098FDC298E599AF
:10030300B452163098FDC298E599B445113098FD62
:0E031300C298E599B4530C80933098FDC298BF
:0F0321003098FDC2983098FDC298E599B44E16F9
:0F0330003098FDC298E599B458113098FDC298E5
:0F033F00E599B4540C800E3098FDC2983098FDAB
:10034E00C298514AD22012062BD0E0A9E0D0E0F894
:10035E0022C0E012062475993A3099FDC2997403B1
:0E036E007599003099FDC299D5E0F575990199
:10037C003099FDC2997599FF3099FDC2993098FD5D
:0E038C00C298E599B452163098FDC298E599D2
:0F039A00B445113098FDC298E599B4530C80BB5F
:1003A9003098FDC2983098FDC29812062BD0E022F1
:0E03B9003099FDC29912062B223098FDC0F03B
:0F03C70075F002E599C298B4501D3098FDE59984
:1003D600C29815F0B449303098FDE599C29815F0E9
:1003E600B44E241204168025B4441C3098FDE599B9
:1003F600C29815F0B44D103098FDE599C29815F0E5
:10040600B4500451A68006E5F031F8514AD0F022E6
:100416007599503099FDC29975994F3099FDC299D9
:0E04260075994E71B922C0E0E8C0E0E9C0E06F
:0E0434001205D6C2B21206391205DD120632CA
:0F0442001205E712061312063912057712063259
:0F0451001205C9D0E0F9D0E0F8D0E022C0E0E811
:10046000C0E0EAC0E01205D6C2B21206391205DDBC
:0F0470001206321205F875320075330075310827
:0F047F0078367A08A69008D2B2C2B2DAF751A640
:10048E00202018C374082533F53374003532F53245
:10049E00202205B408DB8003B410D6715F1205C9A3
:1004AE0012063912062BC220D0E0FAD0E0F8D0E0C6
:0F04BE0022C0E0E8C0E0E9C0E0EAC0E020231C73
:1004CD00D2237534007535001205D6C2B21206322C
:0E04DD001205DD1205EE1205E7120590A93199
:1004EB0012059B7836869012063912063230B7FD0C
:1004FB0008D2B2C2B2D9EEC3E5332531F53574005B
:10050B003532F534D0E0FAD0E0F9D0E0F8D0E02283
:10051B001205C9120639C2B2C22322C0E0E8C0E0FC
:10052B00EAC0E0D2211205D6C2B21206391205DD9D
:0F053B001206321205F878007A00E590B4FF1A24
:10054A00D2B2C2B2C3EA2401FA740038F8202205F2
:0E055A00B408E88009B410E38004C2218000D8
:0F0568001205C9120639D0E0FAD0E0F8D0E0222F
:10057700C0E0E8C0E0E9C0E0781379FFD9FED8FA17
:10058700D0E0F9D0E0F8D0E0220000000000000041
:1005970000000022C0E0E9C0E0EAC0E0A934AA35C3
:1005A700E9B53206EAB53302800FD2B2C2B2C3EA66
:0F05B7002401FA740039F980E7D0E0FAD0E0F9B6
:1005C600D0E022C2B5C2B4C2B353460C12064022D2
:1005D6005346FC120640225346FD4346011206408E
:0E05E600224346031206402253467F434670CE
:0E05F4001206402253463F4346301206402274
:100602004346F0120640225346CF4346C0120640EC
:0E0612002253468F4346801206402253460F65
:0E062000120640225346F712064022434608B7
:0E062E0012064022434604120640225346FBA9
:0F063C0012064022C0E0E8C0E0C2B5C2B3C2B4AB
:0F064B00E54678081392B4D2B5C2B5D8F7D2B34A
:06065A00D0E0F8D0E02220
:00000001FF
